:02000002D0002C
:1040000000400D0008870D00000006000C000501AF
:08401000040115050000000089
:104018000C810D0009480A49884208B505D0094AAB
:10402800824202D0121A02F081FA0748074A002198
:10403800121A02F086FA014808BD00BF08E2032000
:1040480040860D00A8E20320A8E20320F0E7032041
:1040580070B501F063FA074C074BE41AA408002571
:104068001E46A54204D056F8253098470135F8E792
:1040780070BD00BF34860D00F4850D0000F016B841
:1040880008B500F027F8BDE8084001F015BA00F0BF
:10409800BDBB00F0C3BB00F0C1BB0078B0FA80F034
:1040A80040097047012303707047704708B500F056
:1040B800A5FE4FF4165100F095FE0449044800F09F
:1040C800D3F91E21BDE8084000F00EB9B3400D0039
:1040D800ACE20320014800F079B900BFACE203204C
:1040E80010B5064C00F0D6FA204600F0E3F820465A
:1040F800034A0449BDE8104001F0C6BBACE2032006
:10410800A8E2032035410D0030B4036812685868EE
:104118009C681B68096810F0010F4FEA600018BF1F
:104128002558204418BFEB5830BC184710B5044B2D
:10413800044640F80C3B01F0E1FA204610BD00BFF0
:1041480028810D0010B50446FFF7F0FF20462C210A
:1041580001F09FFB204610BD30B51B4D1B4C02469D
:104168002868241A1D2C89B02CD992F82E3010F802
:10417800011C0793536B069392F82B30059392F822
:104188002A30049392F82930039392F82830029346
:1041980092F82730019392F8263000930C4A0D4B81
:1041A8005B2918BF13460C4A214600F047FB00283C
:1041B80008DD844206DD2B68084A18441368286025
:1041C8000133136009B030BDE0E30320DAE30320D4
:1041D80030810D002D830D0032810D00D8E20320BF
:1041E8002DE9F043436A85B00446002B37D01046CA
:1041F80002F0E0F903AA1B49054603F064F858B336
:1042080002F07EF903AA1749002057EC106B03F05F
:104218005AF808B302F074F903AA1249002059ECBD
:10422800108B03F050F8B8B102F06AF951EC100B9A
:1042380002F016F949460190404602F011F9394654
:104248000090304602F00CF9636A9DED011ADDED2D
:10425800000A00EE100A9847284600F0DFFA05B079
:10426800BDE8F08330810D00022A38B5044605D038
:10427800032A0FD0012A11D10B6809E00C200D6820
:10428800FFF705FF034618B195E8070083E8070024
:10429800236003E00C21006801F0FBFA002038BD20
:1042A80010B58368044613B1032201469847204697
:1042B80010BD000038B50A4B0360002542F21073A8
:1042C80004464560836007490C3001F05EFA4FF4FC
:1042D800FA53E56125626562A362204638BD00BFD6
:1042E80028810D0068810D0002234360042998BFCE
:1042F80005214FF47A73594381607047F8B5104C23
:10430800104F114E1149002520463D6002F04AF930
:1043180004F10B0333605B23A37229460C4800F0B9
:10432800F9F833685D221A707D225A709A70DD7030
:104338001A1D3B68326003B923700148F8BD00BFFD
:10434800DDE20320D8E20320E0E3032076810D00BC
:1043580061410D0030B585B0054600F04FFD1849A4
:1043680001F051F92846FFF7C9FF044600F046FD61
:104378002346144A012101F07FF92378F3B100F0B4
:10438800A1F9D8B1104BE9681B788DF800302246A6
:104398003C2302A800F00CFF039C7CB16368013B3E
:1043A80063605BB9236820469B689847A368013B14
:1043B800A3601BB923682046DB68984705B030BD69
:1043C80081810D0091810D00DCE2032010B5036AA4
:1043D800022B04460BD0032B23D0002B34D100F042
:1043E80071F988B30223236200F044F917E000F062
:1043F80041F9E369C01AA36A984225D36368012B7F
:1044080003D12046FFF7A6FF00E013B90423236277
:1044180010BD0323236200F02DF9A368C01AE061E0
:1044280010BD00F04FF970B100F024F9E369C01A2B
:10443800A368984208D300F01DF9E0612046BDE862
:104448001040FFF787BF206210BD38B50023836096
:104458008B6804460D462BB102229847EB68E3604F
:10446800AB68A360204638BD30B58BB0C5684162E3
:10447800044606A800F02EF9069B00931B4A1C4828
:104488002B464FF4807100F0D9F906A801F036F9EF
:1044980000250C200495FFF7FAFD18B1154B846030
:1044A80080E82800144B0290059302A9134B04934B
:1044B80006A8FFF7CAFF089B7BB11020FFF7E7FDAE
:1044C800054650B106A9FFF7C0FF002301930093EA
:1044D8002A460B49064800F00DF906A8FFF7E0FE4A
:1044E80002A8FFF7DDFE20460BB030BD9D810D0010
:1044F800DDE20320E9410D0011410D0071420D007C
:10450800974F0D00024B01221A7000F0C3B800BF8C
:10451800DCE2032008B5024B1B68DB6D019308BD84
:104528007402030008B5024B1B681B68019308BDA1
:104538004C02030008B5024B1B685B68019308BD79
:104548004C02030008B5024B1B681B69019308BDA8
:104558004C02030008B5024B1B685B69019308BD58
:104568004C02030008B5024B1B689B69019308BD08
:104578004C02030008B5024B1B68DB69019308BDB8
:104588004C02030008B5024B1B681B6A019308BD67
:104598004C02030008B5024B1B681B68019308BD59
:1045A8003C02030008B5024B1B68DB68019308BD99
:1045B8003C02030008B5024B1B681B69019308BD48
:1045C8003C02030008B5024B1B685B69019308BDF8
:1045D8003C02030008B5024B1B689B69019308BDA8
:1045E8003C02030008B5024B1B68DB69019308BD58
:1045F8003C02030008B5024B1B689B6A019308BD87
:104608003C02030008B5024B1B685B69019308BDB7
:104618006402030008B5024B1B689B68019308BD40
:104628004802030008B5024B1B681B69019308BDCB
:104638004802030008B5024B1B685B69019308BD7B
:104648004802030008B5024B1B681B6B019308BDA9
:104658004802030008B5024B1B685B6C019308BD58
:104668004802030008B5024B1B685B68019308BD4C
:104678001802030008B5024B1B685B69019308BD6B
:104688001802030008B5024B1B68DB69019308BDDB
:104698003002030008B5024B1B681B68019308BD74
:1046A8002C02030008B5024B1B689B68019308BDE8
:1046B8006802030008B5024B1B68DB68019308BD5C
:1046C8006802030008B5024B1B685B69019308BDCB
:1046D8004402030008B5024B1B68DB69019308BD5F
:1046E8004402030008B5024B1B681B6A019308BD0E
:1046F8004402030008B5024B1B685B6A019308BDBE
:104708004402030008B5024B1B68DB6B019308BD2C
:104718004402030008B5024B1B685B68019308BD9F
:104728004002030008B5024B1B689B68019308BD53
:104738004002030008B5024B1B68DB68019308BD03
:104748004002030008B5024B1B681B69019308BDB2
:104758004002030008B5024B1B685B69019308BD62
:104768004002030008B5024B1B689B69019308BD12
:104778004002030008B5024B1B68DB69019308BDC2
:104788004002030008B5024B1B681B6A019308BD71
:104798004002030008B5024B1B681B6B019308BD60
:1047A8004002030008B5024B1B685B6B019308BD10
:1047B8004002030008B5024B1B685B68019308BD03
:1047C8002002030008B5024B1B68DB6C019308BD8F
:1047D8002002030008B5024B1B685B6D019308BDFE
:1047E8002002030008B5034B1B68D3F888300193F7
:1047F80008BD00002002030008B5034B1B68D3F86E
:104808009430019308BD00002002030008B5024B54
:104818001B681B68019308BD1C02030008B5024B06
:104828001B685B68019308BD1C02030008B5024BB6
:104838001B689B68019308BD1C02030008B5024B66
:104848001B68DB69019308BD1C02030008B5024B15
:104858001B685B6A019308BD1C02030008B5024B84
:104868001B68DB6A019308BD1C02030008B5024BF4
:104878001B681B6B019308BD1C02030000231A462A
:104888004068FFF747BF002202214068FFF752BF88
:10489800002211464068FFF745BF002211464068D4
:1048A800FFF750BF00231A4619464068FFF752BF6A
:1048B80000231A4619464068FFF754BF002281F0CA
:1048C80001014068FFF756BF00224068FFF762BF4A
:1048D800002211464068FFF765BF00221146406874
:1048E800FFF750BF2DE9F043002495B016460D465A
:1048F800074600F0E3FA214620220CA8009401F0B4
:1049080020FE40230C9321466B460CAA3046FFF745
:10491800D1FE0446002844D1024601216868FFF709
:1049280011FF0221804622466868FFF70BFF009EB0
:1049380081462146002E34D0002932D17368022BDB
:1049480002D00A2B09D02AE0B8F1000F27D07169EC
:104958003846043100F0DFFA20E0B9F1000F1ED02C
:104968007469112201A801F0ECFD06238DF81430BA
:1049780001AD04F108031834186859682A4603C2BF
:104988000833A3421546F7D101A906A807AD00F0E0
:10499800A3FA0FCD3C1D0FC42B6823700121F669C3
:1049A800C8E70098FFF77EFE384615B0BDE8F083EB
:1049B800024B034A1A6000225A607047E4E303205E
:1049C800BC810D00002211464068FFF7BBBE0022E3
:1049D80011464068FFF7D6BE002211464068FFF72F
:1049E800E1BE00224068FFF7D5BE002281F0010138
:1049F8004068FFF7BFBE00231A4619464068FFF714
:104A0800B1BE00231A4619464068FFF7A3BE00222C
:104A180011464068FFF786BE002202214068FFF772
:104A280089BE00231A464068FFF774BE024B042271
:104A38005A60024A1A607047ECE30320F0810D00C7
:104A4800002211464068FFF79DBE002211464068CB
:104A5800FFF7A8BE00224068FFF79CBE002281F045
:104A680001014068FFF786BE00231A4619464068D0
:104A7800FFF778BE00231A4619464068FFF76ABE5A
:104A8800002211464068FFF75DBE002211464068CB
:104A9800FFF748BE002202214068FFF74BBE002303
:104AA8001A464068FFF736BE38B5054688B104682F
:104AB8004CB1A3681BB10322214620469847102118
:104AC800204600F0E6FE28461421BDE8384000F0F4
:104AD800E0BE38BD10B103685B681847704710B571
:104AE80003680446BBB15868FFF794FD78B923689A
:104AF8005A7C12B95868FFF795FD23685868FFF784
:104B080099FD20680023236028B1FFF7CDFF2068B6
:104B180008B1FFF7C9FF204610BD000038B50C4B9F
:104B280003600446D0F8CC0108B1FFF7B4FAD4F812
:104B3800C45135B12846FFF7D2FF0421284600F0BA
:104B4800A8FEA06808B1FFF7C5FF204638BD00BF22
:104B580024820D0038B50D4C0D4B2360002502232F
:104B680004F5E4706360A560C4F8C451C4F8C85182
:104B7800FFF770FD074BC4F8CC5123602046064A66
:104B88000649BDE8384000F07FBE00BFF4E30320CB
:104B9800BC810D0024820D00A8E20320254B0D00E6
:104BA800704710B51021044600F073FE204610BD72
:104BB80070B5084B0360044600250E4640F80C5FAC
:104BC800FFF740FD30462671FFF75CFDA5602046E3
:104BD80070BD00BF58820D0010B5836804460BB93C
:104BE80000F059FEC3689847A3681BB10322214609
:104BF8002046984720461021BDE8104000F049BEE5
:104C080070474174704708B5007CFFF7F3FC20EA51
:104C1800E07008BD08B5007CFFF7CCFC20EAE07026
:104C280008BD08B5007CFFF7D5FC30EA200028BF96
:104C38004FF0FF3008BD08B5007CFFF7C3FC30EA31
:104C4800200028BF4FF0FF3008BD007CFFF7CABC2A
:104C580010B51421044600F01CFE204610BD70B5A6
:104C6800457C04460E4625B9007CFFF7C3FC0028A6
:104C780005DD3146207CBDE87040FFF793BC28462F
:104C880070BD000010B50446084611460022626057
:104C98004FF47A72A260054A22600122207462747D
:104CA8001A46FFF777FC204610BD00BF68820D004A
:104CB80038B50C4D296811F0010411D12846FFF7C9
:104CC800ECF968B1084A094B09482146FFF7DAFFB1
:104CD8002846FFF7E7F9074A0749054800F0D4FDD9
:104CE800034838BD5CE6032060E60320D8E50320CE
:104CF800C4E50320A8E20320094C0D000B680360FB
:104D080013B15A6801325A60704738B504680546CD
:104D18007CB16368013B63605BB9236820469B688C
:104D28009847A368013BA3601BB923682046DB684A
:104D38009847284638BD41747047704708B5002128
:104D4800007CFFF70FFC30EA200028BF4FF0FF304F
:104D580008BD08B50121007CFFF704FC30EA2000FB
:104D680028BF4FF0FF3008BD08B5007CFFF7F2FB05
:104D780020EAE07008BD08B5007CFFF7E3FB20EAF5
:104D8800E07008BD007CFFF7FDBB10B51421044698
:104D980000F07FFD204610BD38B50446007C0D4666
:104DA800FFF7D8FB002801DC607C28B12946207C6D
:104DB800FFF7E0FB20EAE07038BD000010B50446BC
:104DC800002363604FF47A73A360054B23600123CB
:104DD8000846217463741146FFF7A4FB204610BDF2
:104DE80098820D000022007CFFF7A4BB10B51422A6
:104DF8000446002101F0A5FB204610BD30B50E4D3C
:104E080087B001A8FFF7F2FF296811F0010410D15B
:104E18002846FFF742F960B101AA21460748FFF783
:104E2800CDFF2846FFF73EF9054A0649034800F03A
:104E38002BFD024807B030BDE4E60320E8E6032076
:104E4800A8E20320434D0D00704710B51821044611
:104E580000F01FFD204610BDF0B5037D062B8DB078
:104E68000E4600F104074FF0000402D000F10805D7
:104E780018E00CAD394605F8304D2F232A460A2094
:104E8800FFF7C0FB284601F0B0FB33680246DB6839
:104E98002946304698470FE024B12E21304600F0CD
:104EA800A3FB044415F8011D0A22304600F0E2FB7A
:104EB800BD420444F0D120460DB0F0BD10B5054BFD
:104EC8000446112240F8043B002101F03AFB204639
:104ED80010BD00BFC8820D000346074A10B543F84D
:104EE800042B01F1100251F8044B43F8044B914292
:104EF800F9D10A781A7010BDC8820D0010B59DF856
:104F0800084044EA032343EA024242EA01610423D7
:104F18004160037510BD37B50D788B784A78C9782C
:104F280000912946FFF7EAFF03B030BD7047002023
:104F3800704710B51021044600F0ABFC204610BDA8
:104F480008B508B1FFF7F5FF08BD38B5C468ECB17E
:104F58002378022B02D1E068FFF760FC656835B161
:104F68002846FFF79DF91021284600F092FCA56815
:104F780035B12846FFF794F91021284600F089FC3E
:104F880020461421BDE8384000F083BC38BD07B581
:104F98008DE8060082680AB900F07DFCC36801AAA2
:104FA8006946984703B05DF804FB13B5044691E8D9
:104FB800050000234B600B602060626001A801932C
:104FC8000093FFF7A2FE204602B010BDF7B50C46CD
:104FD80002AD54F8043B45F8083D06460F4601A8C3
:104FE8002146FFF78BFE29463046FFF7DEFF01A872
:104FF800FFF78BFE2046FFF788FE3846082100F0B1
:1050080048FC304603B0F0BD13B50B46044603C850
:105018008DE8030093E8030084E803009DE803009B
:1050280083E8030002B010BD826810B50AB900F029
:1050380032FCC368BDE81040184708B5006800F1A5
:105048001001FFF7F1FF08BD826810B50AB900F03A
:1050580022FCC368BDE81040184708B5006800F195
:105068001001FFF7F1FF08BD38B5002383608B6896
:1050780004460D462BB102229847EB68E360AB6803
:10508800A360204638BD00002DE9F0414FF69C731F
:1050980086B00468B1F904208B8000230F688DF86E
:1050A80000300B604FF00200D4E84F1F994203D143
:1050B800C4E8450F002DF7D102D08DF800106BE041
:1050C80014F10C051EBFE76022821F460123BFF3BF
:1050D8005F8F0020637004F10803BFF35F8F53E80C
:1050E800006F43E80002002AF9D1BFF35F8F002E5A
:1050F80052D0FFF767FB20B129463046FFF794FFEF
:1051080043E031466846FFF7AFFFE068B4F9105056
:1051180008B101F04FFA04901020ADF81450FEF7D2
:10512800B6FF054630B34FF00008C0F808801820D5
:10513800FEF7ADFF0446C0B1C0F8088001466846D6
:10514800FFF762FF029BA268A360039B0292E268DA
:10515800E360BDF81430A3824FF69C73ADF81430A9
:10516800049B03922361CDF810800E4BEB600E4B2D
:105178002C60AB600498FFF751FB6846FFF790F886
:10518800002229460948FFF725FB3046FFF788F833
:105198001021304600F07DFB3846FFF73FFB06B094
:1051A800BDE8F08143500D00A1520D00E14B0D0008
:1051B8002DE9F04F8BB007AD4FF0000B064699462E
:1051C80014200C230F4690469DF850A0C5F804B053
:1051D800C5F808B00793FEF75AFF044638B180F8BF
:1051E80000B080F801B0C0F804B0C0F808B00023DF
:1051F800102003940493FEF74AFF28B1012343606B
:105208008360234B0360C4600490224B08930820FA
:10521800FEF73DFF044628B1039B40F8043B04A970
:10522800FFF76CFD00955FFA8AF34A464146384617
:105238000994FFF757FAB8B9039B5B7803F0FF02AC
:1052480093B94FF69C7305A903A80592ADF81830D9
:10525800FFF71AFF0598FFF7E1FA05A80999FFF784
:10526800B5FE06A8FFF751FD039B059304A906A800
:10527800FFF744FD05A93046FFF797FE06A8FFF79C
:1052880044FD04A8FFF741FD30460BB0BDE8F08FA0
:10529800DC820D000D540D00022AF8B5044606D034
:1052A800032A17D0012A21D10B6803601EE01820B9
:1052B8000E68FEF7ECFE054650B13146FFF7D4FE06
:1052C8003069B6F9147008B101F074F92861AF8239
:1052D80025600BE004684CB12069FFF79FFA20466F
:1052E800FEF7DEFF1821204600F0D3FA0020F8BDB3
:1052F80038B5002383608B6804460D462BB1022223
:105308009847EB68E360AB68A360204638BD022A83
:1053180070B5044606D0032A11D0012A18D10B68AB
:10532800036015E014200E68FEF7B1FE054620B1B3
:105338003146FFF7DDFF337C2B74256008E00468F5
:1053480034B12046FEF7ACFF1421204600F0A1FA44
:10535800002070BDF0B5002387B00C46BFF35F8F07
:1053680050E8006F40E80032002AF9D1BFF35F8FA0
:10537800002E3FD01846FFF725FA074620B12146F0
:105388003046FFF761FE2EE0314601A8FFF7B0FF77
:1053980023788DF814301020FEF779FE0546D0B139
:1053A80087601420FEF773FE044678B187600146D3
:1053B80001A8FFF729FE039BA268A360049B039240
:1053C800E268E3609DF81430049223740A4BEB60A2
:1053D8000A4B2C60AB6001A8FEF762FF0022294649
:1053E8000748FFF7F7F93046FEF75AFF1021304615
:1053F80000F04FFA07B0F0BD63500D0017530D00D1
:10540800E14B0D0030B585B004460D46684611469F
:10541800FFF7DCFD7CB124B228460DB101F0CAF8D3
:10542800029002A96846ADF80C40FFF72DFE0298DD
:10543800FFF7F4F91DE000988DF808404FF00102DD
:10544800D0E84F3FA34203D1C0E8412F0029F7D14C
:1054580002D08DF808300CE010F10C014FF0010378
:1054680018BF0373BFF35F8F043000F8033CFFF7E6
:1054780071FF01A8FFF749FC05B030BD08B50C4B1A
:1054880033B1FFF7BBFC03681B699847002809DCA8
:10549800084B63B1FFF70CFC03681B6998470028A9
:1054A80003DC08BDAFF30080F2E7AFF3008008BD6E
:1054B800000000000000000008B5FFF7DFFFFFF75D
:1054C800D9F8014B186008BD2CE7032007B5002365
:1054D80000931A466FF07701FFF78EF903B05DF875
:1054E80004FB000007B543880A2B08D0502B09D1CC
:1054F800094B1B683BB103B05DF804EB1847FFF795
:10550800E5FF06E0002300931A466FF07701FFF7E6
:1055180073F903B05DF804FBFCE6032010B5FFF750
:10552800A1F8044601F016F8074B13B12046AFF373
:10553800008000210448FFF7E5F800210348BDE892
:105548001040FFF74FB900BF00000000ED540D00F8
:1055580010B50446FEF7A4FE204610BD0348044AD1
:1055680004490023836000F08FB900BF00E70320DF
:10557800A8E2032059550D00024B1A68024B1A6025
:10558800704700BF08E2032010E70320014B024ADE
:105598001A60704714E70320CF830D00F8B506465C
:1055A8000D468F180024BD420CD0336815F8011B36
:1055B8009B6830469847002801DB0444F3E7002C39
:1055C80008BF04462046F8BD70B505460C46084697
:1055D80049B101F00AF82B68024621462846DB68E3
:1055E800BDE87040184770BD03689B68184738B518
:1055F8000D210546FFF7F8FF0A2104462846FFF764
:10560800F3FF204438BD38B50546FFF7DDFF0446F3
:105618002846FFF7ECFF204438BD30B58BB00B4669
:1056280000218DF82410012A98BF0A220DF12304C5
:10563800B3FBF2F505FB123303F0FF03092B94BF0C
:1056480030333733DBB2214604F801392B46002DBD
:10565800EED1FFF7B9FF0BB030BD10B42AB903681B
:105668005DF8044B9B68C9B21847D2B25DF8044B89
:10567800FFF7D3BFFFF7F1BF0CB42DE9F04387B0B4
:1056880000AF07F13804054654F8049B3C600E4609
:1056980023464A461421381DFFF7D8F8132805D8A1
:1056A800391D2846FFF790FF044613E000F1080370
:1056B80023F00703E846ADEB030D411C23464A4699
:1056C80068463C60FFF7C2F869462846FFF77CFF4A
:1056D8000446C5461EB12846FFF789FF0444204604
:1056E8001C37BD46BDE8F04302B0704702480023AE
:1056F8000360FEF7AFBF00BF18E7032010B50446EC
:105708000068FFF78BF8204610BD10B50446006806
:1057180008B1FFF783F800232360A360636010BD1E
:1057280038B504460D4600680131FFF77FF810B11F
:1057380084E82100012038BD10B50368044613B180
:1057480043688B4207D22046FFF7EAFF20B1A368DF
:105758000BB922681370012010BD70B50E461146B2
:1057680004461546FFF7E8FF18B92046FFF7CDFFB6
:1057780009E02A463146A560206800F0D7FE226875
:10578800A3680021D154204670BD38B500230446D3
:1057980003604360836003730D4639B1084600F027
:1057A80024FF294602462046FFF7D7FF204638BD8A
:1057B800044B00204FF6FF72187058809A80FEF74D
:1057C800F9BF00BF1CE70320002211464068FEF71E
:1057D800D9BF002211464068FEF7E4BF00224068A6
:1057E800FEF7D8BF002281F001014068FEF7C2BF72
:1057F80000231A4619464068FEF7B4BF00231A462C
:1058080019464068FEF7A6BF002211464068FEF719
:1058180099BF002211464068FEF784BF002202218A
:105828004068FEF787BF00231A464068FEF772BF3C
:10583800024B03225A60024A1A60704724E7032089
:1058480000840D0070B50C4C0C4E0D4D0021204607
:10585800FFF7AEF920460B4C3246294600F014F803
:1058680001212046FFF7A4F9324629462046BDE823
:10587800704000F009B800BF30E70320A8E2032019
:10588800A94B0D0040E703200B460146184600F0DF
:105898003BBEFEF7FEBB08B5FEF7E0FF184B1A68E3
:1058A800D1075CBF01221A60164B1A68D2075CBF89
:1058B80001221A60144B1A68D0075CBF01221A60D3
:1058C800124B1A68D1075CBF01221A60104B1A6884
:1058D800D2075CBF01221A600E4B1A68D0075CBF62
:1058E80001221A600C4B1A68D1075CBF01221A60AA
:1058F8000A4B1A68D2075CBF01221A60704700BFC2
:105908006CE7032068E7032064E7032060E70320CF
:105918005CE7032058E7032054E7032050E70320FF
:10592800244B1A68D0075CBF01221A60224B1A6800
:10593800D1075CBF01221A60204B1A68D2075CBFEE
:1059480001221A601E4B1A68D0075CBF01221A6038
:105958001C4B1A68D1075CBF01221A601A4B1A68DF
:10596800D2075CBF01221A60184B1A68D0075CBFC7
:1059780001221A60164B1A68D1075CBF01221A600F
:10598800144B1A68D2075CBF01221A60124B1A68BE
:10599800D0075CBF01221A60104B1A68D1075CBFA0
:1059A80001221A600E4B1A68D2075CBF01221A60E6
:1059B800704700BF9CE7032098E7032094E7032083
:1059C80090E703208CE7032088E7032084E703207F
:1059D80080E703207CE7032078E7032074E70320AF
:1059E80070E70320244B1A68D0075CBF01221A60B5
:1059F800224B1A68D1075CBF01221A60204B1A6833
:105A0800D2075CBF01221A601E4B1A68D0075CBF20
:105A180001221A601C4B1A68D1075CBF01221A6068
:105A28001A4B1A68D2075CBF01221A60184B1A6811
:105A3800D0075CBF01221A60164B1A68D1075CBFF9
:105A480001221A60144B1A68D2075CBF01221A603F
:105A5800124B1A68D0075CBF01221A60104B1A68F3
:105A6800D1075CBF01221A600E4B1A68D2075CBFCF
:105A780001221A60704700BFCCE70320C8E7032063
:105A8800C4E70320C0E70320BCE70320B8E70320EE
:105A9800B4E70320B0E70320ACE70320A8E703201E
:105AA800A4E70320A0E70320184B1A68D1075CBFBE
:105AB80001221A60164B1A68D2075CBF01221A60CD
:105AC800144B1A68D0075CBF01221A60124B1A687F
:105AD800D1075CBF01221A60104B1A68D2075CBF5D
:105AE80001221A600E4B1A68D0075CBF01221A60A7
:105AF8000C4B1A68D1075CBF01221A600A4B1A685E
:105B0800D2075CBF01221A60704700BFECE7032090
:105B1800E8E70320E4E70320E0E70320DCE70320CD
:105B2800D8E70320D4E70320D0E7032081F0004121
:105B380002E000BF83F0004330B54FEA41044FEA6A
:105B4800430594EA050F08BF90EA020F1FBF54EA05
:105B5800000C55EA020C7FEA645C7FEA655C00F0A1
:105B6800E2804FEA5454D4EB5555B8BF6D420CDD72
:105B78002C4480EA020281EA030382EA000083EAF5
:105B8800010180EA020281EA0303362D88BF30BD95
:105B980011F0004F4FEA01314FF4801C4CEA1131EB
:105BA80002D0404261EB410113F0004F4FEA03334A
:105BB8004CEA133302D0524263EB430394EA050FD5
:105BC80000F0A780A4F10104D5F1200E0DDB02FA44
:105BD8000EFC22FA05F2801841F1000103FA0EF2D8
:105BE800801843FA05F359410EE0A5F120050EF19E
:105BF800200E012A03FA0EFC28BF4CF0020C43FACF
:105C080005F3C01851EBE37101F0004507D54FF0DB
:105C1800000EDCF1000C7EEB00006EEB0101B1F52B
:105C2800801F1BD3B1F5001F0CD349085FEA300071
:105C38004FEA3C0C04F101044FEA445212F5800F7C
:105C480080F09A80BCF1004F08BF5FEA500C50F119
:105C5800000041EB045141EA050130BD5FEA4C0CFC
:105C6800404141EB010111F4801FA4F10104E9D185
:105C780091F0000F04BF01460020B1FA81F308BF7C
:105C88002033A3F10B03B3F120020CDA0C3208DD48
:105C980002F1140CC2F10C0201FA0CF021FA02F123
:105CA8000CE002F11402D8BFC2F1200C01FA02F193
:105CB80020FA0CFCDCBF41EA0C019040E41AA2BFB8
:105CC80001EB0451294330BD6FEA04041F3C1CDA80
:105CD8000C340EDC04F11404C4F1200220FA04F0A0
:105CE80001FA02F340EA030021FA04F345EA03014A
:105CF80030BDC4F10C04C4F1200220FA02F001FA0C
:105D080004F340EA0300294630BD21FA04F029468D
:105D180030BD94F0000F83F4801306BF81F4801126
:105D28000134013D4EE77FEA645C18BF7FEA655C99
:105D380029D094EA050F08BF90EA020F05D054EA6B
:105D4800000C04BF1946104630BD91EA030F1EBF70
:105D58000021002030BD5FEA545C05D14000494174
:105D680028BF41F0004130BD14F580043CBF01F567
:105D7800801130BD01F0004545F0FE4141F470014D
:105D88004FF0000030BD7FEA645C1ABF1946104628
:105D98007FEA655C1CBF0B46024650EA013406BF29
:105DA80052EA033591EA030F41F4002130BD00BFE8
:105DB80090F0000F04BF0021704730B54FF48064A5
:105DC80004F132044FF000054FF0000150E700BF26
:105DD80090F0000F04BF0021704730B54FF4806485
:105DE80004F1320410F0004548BF40424FF0000172
:105DF8003EE700BF42004FEAE2014FEA31014FEAB5
:105E080002701FBF12F07F4393F07F4F81F0605103
:105E1800704792F0000F14BF93F07F4F704730B572
:105E28004FF4607401F0004521F0004120E700BF05
:105E380050EA010208BF704730B54FF000050AE08C
:105E480050EA010208BF704730B511F0004502D58D
:105E5800404261EB41014FF4806404F132045FEA8F
:105E6800915C3FF4DCAE4FF003025FEADC0C18BF34
:105E780003325FEADC0C18BF033202EBDC02C2F12A
:105E8800200300FA03FC20FA02F001FA03FE40EABC
:105E98000E0021FA02F11444C1E600BF70B54FF0BC
:105EA800FF0C4CF4E06C1CEA11541DBF1CEA13559E
:105EB80094EA0C0F95EA0C0F00F0DEF82C4481EA06
:105EC800030621EA4C5123EA4C5350EA013518BF26
:105ED80052EA033541F4801143F4801338D0A0FB13
:105EE80002CE4FF00005E1FB02E506F00042E0FBC0
:105EF80003E54FF00006E1FB03569CF0000F18BFC6
:105F08004EF0010EA4F1FF04B6F5007F64F540746D
:105F180004D25FEA4E0E6D4146EB060642EAC62100
:105F280041EA55514FEAC52040EA5E504FEACE2E6D
:105F3800B4F1FD0C88BFBCF5E06F1ED8BEF1004F70
:105F480008BF5FEA500E50F1000041EB045170BDEC
:105F580006F0004646EA010140EA020081EA030130
:105F6800B4EB5C04C2BFD4EB0C0541EA045170BD2C
:105F780041F480114FF0000E013C00F3AB8014F1A6
:105F8800360FDEBF002001F0004170BDC4F10004EF
:105F9800203C35DA0C341BDC04F11404C4F1200570
:105FA80000FA05F320FA04F001FA05F240EA0200CB
:105FB80001F0004221F0004110EBD37021FA04F601
:105FC80042EB06015EEA430E08BF20EAD37070BDBB
:105FD800C4F10C04C4F1200500FA04F320FA05F01A
:105FE80001FA04F240EA020001F0004110EBD3701C
:105FF80041F100015EEA430E08BF20EAD37070BD8C
:10600800C4F1200500FA05F24EEA020E20FA04F364
:1060180001FA05F243EA020321FA04F001F0004113
:1060280021FA04F220EA020000EBD3705EEA430E84
:1060380008BF20EAD37070BD94F0000F0FD101F0B3
:106048000046400041EB010111F4801F08BF013CEC
:10605800F7D041EA060195F0000F18BF704703F02A
:106068000046520043EB030313F4801F08BF013DB1
:10607800F7D043EA0603704794EA0C0F0CEA13556D
:1060880018BF95EA0C0F0CD050EA410618BF52EA27
:106098004306D1D181EA030101F000414FF000002D
:1060A80070BD50EA410606BF1046194652EA43063B
:1060B80019D094EA0C0F02D150EA013613D195EAAF
:1060C8000C0F05D152EA03361CBF104619460AD1F7
:1060D80081EA030101F0004141F0FE4141F4700101
:1060E8004FF0000070BD41F0FE4141F4780170BDF1
:1060F80070B54FF0FF0C4CF4E06C1CEA11541DBF56
:106108001CEA135594EA0C0F95EA0C0F00F0A7F857
:10611800A4EB050481EA030E52EA03354FEA013184
:1061280000F088804FEA03334FF0805545EA131397
:1061380043EA12634FEA022245EA111545EA10655F
:106148004FEA00260EF000419D4208BF964244F1F6
:10615800FD0404F5407402D25B084FEA3202B61A15
:1061680065EB03055B084FEA32024FF480104FF4E9
:10617800002CB6EB020E75EB030E22BFB61A75465D
:1061880040EA0C005B084FEA3202B6EB020E75EBF0
:10619800030E22BFB61A754640EA5C005B084FEA58
:1061A8003202B6EB020E75EB030E22BFB61A754625
:1061B80040EA9C005B084FEA3202B6EB020E75EB30
:1061C800030E22BFB61A754640EADC0055EA060EF1
:1061D80018D04FEA051545EA16754FEA06164FEA34
:1061E800C30343EA52734FEAC2025FEA1C1CC0D1E0
:1061F80011F4801F0BD141EA00014FF000004FF06D
:10620800004CB6E711F4801F04BF01430020B4F12D
:10621800FD0C88BFBCF5E06F3FF6AFAEB5EB030CE5
:1062280004BFB6EB020C5FEA500C50F1000041EBE2
:10623800045170BD0EF0004E4EEA113114EB5C04AF
:10624800C2BFD4EB0C0541EA045170BD41F4801182
:106258004FF0000E013C90E645EA060E8DE60CEA8A
:10626800135594EA0C0F08BF95EA0C0F3FF43BAFA7
:1062780094EA0C0F0AD150EA01347FF434AF95EA5E
:106288000C0F7FF425AF104619462CE795EA0C0F42
:1062980006D152EA03353FF4FDAE1046194622E70F
:1062A80050EA410618BF52EA43067FF4C5AE50EAE9
:1062B80041047FF40DAF52EA43057FF4EBAE12E7D9
:1062C8004FF0FF3C06E000BF4FF0010C02E000BFBA
:1062D8004FF0010C4DF804CD4FEA410C7FEA6C5C9D
:1062E8004FEA430C18BF7FEA6C5C1BD001B050EA40
:1062F800410C0CBF52EA430C91EA030F02BF90EA2B
:10630800020F0020704710F1000F91EA030F58BFE9
:10631800994208BF90422CBFD8176FEAE37040F04B
:10632800010070474FEA410C7FEA6C5C02D150EAE9
:10633800013C07D14FEA430C7FEA6C5CD6D152EAA4
:10634800033CD3D05DF8040B704700BF8446104669
:1063580062468C461946634600E000BF01B5FFF768
:10636800B7FF002848BF10F1000F01BD4DF808ED38
:10637800FFF7F4FF0CBF012000205DF808FB00BF09
:106388004DF808EDFFF7EAFF34BF012000205DF863
:1063980008FB00BF4DF808EDFFF7E0FF94BF0120B0
:1063A80000205DF808FB00BF4DF808EDFFF7CEFFB1
:1063B80094BF012000205DF808FB00BF4DF808EDF0
:1063C800FFF7C4FF34BF012000205DF808FB00BFC1
:1063D8004FEA410212F5001215D211D56FF4787305
:1063E800B3EB625212D94FEAC12343F0004343EAA8
:1063F800505311F0004F23FA02F018BF4042704783
:106408004FF00000704750EA013005D111F000400C
:1064180008BF6FF0004070474FF00000704700BFA2
:106428004A0011D212F5001211D20DD56FF478730B
:10643800B3EB62520ED44FEAC12343F0004343EA60
:10644800505323FA02F070474FF00000704750EAAB
:10645800013002D14FF0FF3070474FF00000704715
:106468004FEA4102B2F1E04324BFB3F5001CDCF16E
:10647800FE5C0DD901F0004C4FEAC0024CEA5070A6
:10648800B2F1004F40EB830008BF20F001007047D5
:1064980011F0804F21D113F13872BCBF01F00040D8
:1064A800704741F480114FEA5252C2F11802C2F10A
:1064B800200C10FA0CF320FA02F018BF40F001008B
:1064C8004FEAC1234FEAD32303FA0CFC40EA0C003D
:1064D80023FA02F34FEA4303CCE77FEA625307D17A
:1064E80050EA01331EBF4FF0FE4040F440007047B1
:1064F80001F0004040F0FE4040F40000704700BF4B
:10650800002100F0ADBE000010B5054C13462CB1BB
:106518000A4601460220AFF3008010BD204610BD98
:10652800000000000048704770E2032010B5431EC9
:106538000A44914204D011F8014B03F8014FF8E7DF
:1065480010BD02440346934202D003F8011BFAE748
:106558007047000038B5124B1C68A36B0546D3B9C9
:106568001820FEF753F943F20E33A06303804AF66E
:10657800CD33438041F2342383804EF26D63C38070
:106588004DF6EC630381052343810B2383810122AC
:106598000023C0E90423A36B00221D615A6138BDA2
:1065A8006CE20320034611F8012B03F8012B002AA3
:1065B800F9D17047024B0146186800F003B800BFD4
:1065C8006CE2032070B5064608460C4600F00DF84C
:1065D800451C29463046FEF749F9064618B12A46B1
:1065E8002146FFF7A3FF304670BD034613F8012B81
:1065F800002AFBD1181A0138704730B582B1451E00
:10660800013915F8013F11F8014FA34206D1EC43B7
:106618001444E04201D0002BF3D11C46181B30BDB6
:10662800104630BD70B504460D4645EC104B164675
:1066380001F030FC51EC100B7EB1C5F30A53C3F1E5
:106648006B03002B09DD1B0503F17F55002405F5BD
:10665800401522462B46FFF721FC70BD00000000C4
:106668002DE9F04F9DB0002302900C461392189329
:106678004FF0000A4FF0000B1791179B1A780D2A5C
:1066880005D8092A13D2002A00F0AC8112E02B2A7F
:1066980004D02D2A04D0202A0CD108E0002200E0E2
:1066A80001220C925A1C17925B782BB99AE101339C
:1066B8001793E2E700230C93179D2B78302B5CD1BE
:1066C8006B78582B01D0782B4CD10C9B019318ABCD
:1066D8000093A94A029819AB17A900F042FE10F0DE
:1066E8000706044600F08785062E05D101350023EC
:1066F80017950C9300F07FBD189A3AB135211AA866
:1067080001F0B5FC1899029801F032F9062E22D84A
:10671800DFE806F0040D08181D0D04004FF0000B0B
:10672800DA4618E0DDF868A0DDF86CB013E01B9BD2
:10673800199ADDF868A023F4801302F2334243EA81
:10674800025B08E0DFF834B24FF0000A03E06FF0B4
:10675800004B4FF0FF3A210740F14D854BF0004BBD
:1067680000F049BD179B5A1C17925B78302BF9D063
:10677800002B00F04085012300E000234FF00008C3
:106788000693179B0793CDF81480CDF810800A2242
:10679800179D2E78A6F13003D9B209290ED804998D
:1067A8000829DDBF059902FB0133059302FB083870
:1067B800049B0135013304931795E9E70298FFF725
:1067C800B1FE07680298FFF7ADFE0068FFF70DFFFE
:1067D800394602462846FFF710FF074628B1002031
:1067E8003346049D0246014657E00298FFF79AFE99
:1067F8000068FFF7FAFE179B1A181792049A1B5C99
:10680800002A42D11046302B05D1179B5A1C1792EB
:1068180001305B78F7E7A3F13102082A43D8179AC9
:106828000792024600200546303B00F1010126D0C0
:106838000A4405EB000C29460A2661450ED00131B1
:1068480001F1FF3EBEF1080F03DC059F7743059772
:10685800F3E71029D8BF06FB08F8EEE72844082814
:1068680000F1010505DC05980A2101FB00330593B9
:1068780004E0102DDCBF0A2101FB08380021179B1A
:10688800581C17905B78084602E0049D38463A4643
:10689800A3F130010929C7D90121652B01D0452B66
:1068A80051D16DB904E0652B40F0B3840022012179
:1068B80028B9069B002B00F09580054600E00025CE
:1068C800179C631C179363782B2B06D02D2B02D0B3
:1068D8000026039606E0012300E000230393A31C8F
:1068E8001793A378A3F13006092E2BD8302B04D1A7
:1068F800179B5E1C17965B78F8E7A3F13106082E04
:1069080021D8A3F1300E179B4FF00A0C1F46179B96
:106918005E1C17965B78A3F13009B9F1090F04D80A
:106928000CFB0E3EAEF1300EF1E7F61B082E44F6D6
:106938001F6902DCF145A8BFF146039E2EB1C9F1DB
:10694800000902E017944FF00009002D53D10028E8
:1069580040F05184069A002A40F04D84002941D124
:106968004E2B20D002DC492B0AD03BE0692B07D004
:106978006E2B18D036E000BF98840D000000F07F21
:10698800A84917A800F01EFF60B3179BA649013B52
:1069980017A8179300F016FF10B9179B0133179328
:1069A800DFF8A0B21AE0A14917A800F00BFFC8B1A0
:1069B800179B1B78282B0FD11AAA9D4917A800F0FE
:1069C80014FF052808D11B9BDDF868A043F0FF4B96
:1069D8004BF4E00B00F00FBCDFF86CB24FF0000A8C
:1069E80000F009BC139B1794002B00F00F840023C0
:1069F8000C9300F002BC049B0598002B08BF2B46A3
:106A0800102D2C46C2EB0909A8BF10240493FFF7E8
:106A1800CFF9092C82468B4613DD864B03EBC40362
:106A280053E91223FFF73AFA064640460F46FFF7A6
:106A3800BFF902460B4630463946FFF77DF88246D5
:106A48008B460F2D36DCB9F1000F00F0D48324DD1E
:106A5800B9F1160F07DC774D05EBC90952465B46BD
:106A6800D9E9000114E0C5F12503994522DC714CF0
:106A7800C5F10F0504EBC501C5EB090552465B4698
:106A8800D1E9000104EBC504FFF708FAD4E90023B3
:106A9800FFF704FA82468B46ADE319F1160F09DBBE
:106AA800644DA5EBC909D9E9002350465946FFF7BB
:106AB8001FFBEFE72C1B4C44002C57DD14F00F0193
:106AC8000AD05C4B03EBC10152465B46D1E9000199
:106AD800FFF7E4F982468B4634F00F0400F0B880E3
:106AE800B4F59A7F0BDD0024254605940494029A98
:106AF800DFF850B1222313604FF0000A87E14E4EB1
:106B0800002324115046594698463746012C0BDD80
:106B1800E20704D5D6E90023FFF7C0F9012308F1FD
:106B2800010864100836F1E70BB182468B46ABF1D9
:106B3800547B07EBC80752465B46D7E90001FFF7CD
:106B4800ADF921F000438B460A461B0D3B491B0556
:106B58008B428246C7D8A1F580118B4286BFDFF8E9
:106B6800ECB04FF0FF3A02F1547B71E070D0644210
:106B780014F00F020AD02F4B03EBC20350465946BC
:106B8800D3E90023FFF7B4FA82468B4624115FD07D
:106B98001F2C04DD002425460594049430E114F0EC
:106BA800100F0CBF00236A23254E03935046594605
:106BB8000023002C09DDE20704D5D6E90023FFF7FE
:106BC8006DF9012364100836F3E70BB182468B4652
:106BD800039BEBB1CBF30A53C3F16B03002B59466C
:106BE80016DD1F2B0EDD342BDEBF203B4FF0FF32AE
:106BF80002FA03F34FF0000ACCBF4FF05C7B03EAC4
:106C0800010B05E04FF0FF3202FA03F303EA0A0A28
:106C18000022002350465946FFF7A8FB0028B9D1A7
:106C280018E000BFC0840D00C3840D00C9840D00A6
:106C3800AC840D00F8840D00C0850D000000A07C18
:106C4800D0840D000000F07F0000F8FFFFFFEF7F09
:106C580000230393059B0093049A079902982B46F7
:106C680000F0D8FE059000283FF43DAFB9F1000FC1
:106C7800C9F10003A8BF00230D93002429EAE97392
:106C880012932546059B0298596800F03CFE049033
:106C980000283FF42CAF059B1A69023203F10C015E
:106CA80092000C30FFF742FC1AAA19A94BEC10AB62
:106CB8000298CDE908AB01F062F9189000283FF47A
:106CC80016AF0121029800F030FF054600283FF476
:106CD8000EAF199B03991A9E002BADBF0D9A129AFD
:106CE800DDF8348002EB0308B8BFD21AA3EB010326
:106CF8003344B549A8BF129A013B8B42C6F1360608
:106D080080F28A80C91A1F29C8BFB04F4FF0010905
:106D1800D4BF09FA01F3FF1AA6EB0106D9BF0693FF
:106D2800002709FA07F7CDF8189008EB0609039B26
:106D3800C84516441E444346A8BF4B46B342A8BFA5
:106D48003346002BC2BFC3EB0909F61AC3EB080888
:106D58000D9B002B64D1B9F1000F7ADC129B002B3C
:106D680040F08180002E00F38880B8F1000F00F316
:106D78008E80049A1899029801F02DF8044600288C
:106D88003FF4B5AEC36807930023C360294601F0FA
:106D980006F8002880F28980079B002B40F00482C7
:106DA800BAF1000F40F00082CBF31303002B40F040
:106DB800FB812BF000431B0D1B05B3F1D66F40F28E
:106DC800F3816369002B6CD021460122029800F000
:106DD80095FF2946044600F0E2FF002840F3E481CD
:106DE8002BF00043039A1B0D1B05002A00F08C8032
:106DF800B3F1D66F00F38880B3F15C7F00F3D681DE
:106E0800029A22234FF0000A4FF0000B1360059BF3
:106E1800002B40F0DC81EEE101230027069384E794
:106E280029461A46029800F01BFF054600283FF441
:106E38005EAE0146189A029800F080FE079000287E
:106E48003FF455AE1899029800F092FD079B1893ED
:106E580081E74A461899029800F050FF18900028D8
:106E68007FF47CAF43E6129A0499029800F0F8FE8A
:106E7800049000287FF476AF39E6324604990298E8
:106E880000F03CFF049000287FF46FAF2FE62946FE
:106E98004246029800F032FF054600287FF469AFA9
:106EA80025E62369012B8FDC7EE161D1079ACBF3BC
:106EB800130322B346498B425A462ED1039B5146AF
:106EC80063B1444B1340B3F1D46F07D81B0DC3F122
:106ED8006B034FF0FF3000FA03F301E04FF0FF338C
:106EE8008B421AD13C498A4202D101333FF4FFADAB
:106EF800384B134003F5801B4FF0000A54E163B987
:106F0800BAF1000F09D16BE7A3F580136FEA135BA1
:106F18006FEA0B5B4FF0FF3A46E117B117EA0B0F28
:106F280002E0069B13EA0A0F00F03E81079B039AD2
:106F38005046594653B1FFF775FB02460B46DDE94B
:106F48000801FEF7F9FD82468B462DE1FFF76AFB43
:106F580002460B46DDE90801FEF7ECFD002200239E
:106F680082468B46FFF702FA00287FF449AF1BE1FF
:106F78002946204601F051F857EC106B00224FF0DB
:106F8800804310EE100A3946FFF704FA002842D071
:106F9800079B23B14FF00008DFF8409011E0BAF1E9
:106FA800000F03D1CBF313033BB91BE0BAF1010F78
:106FB80003D1BBF1000F3FF423AFDFF824904FF06B
:106FC80000080026054F39E002FCFFFFE2FBFFFF47
:106FD800FFFF0F000000F07FFFFFEF7F0000F03F92
:106FE8000000F0BF0022984B30463946FFF7C8F939
:106FF80040B9304639460022944BFEF74FFF06460B
:107008000F4601E0914F002607F1004314961593AF
:10701800DDE9148912E08D4B304639460022FEF72F
:107028003DFF079B06460F4623B901F100430E902A
:107038000F9301E0CDE90E67DDE90E892BF00043DF
:107048001B0D1B050693069A814B9A422BD1DDE94D
:107058000823ABF1547B4BEC10ABCDE90A2300F0CD
:1070680019FF404653EC102B4946FEF717FF5246CE
:107078005B46FEF761FD21F000431B0D754A1B05B9
:10708800934282460CD9744B0B9A9A4203D10A9BBD
:1070980001333FF42CADDFF8C0B14FF0FF3A72E096
:1070A80001F1547B38E0039B33B3069BB3F1D46FF3
:1070B80022D85DA3D3E9002330463946FFF76AF9A1
:1070C800A8B139463046FFF7ABF9002808BF0120C0
:1070D800FEF76EFE079B06460F4623B901F10043F3
:1070E8001090119301E0CDE91067DDE91089069A47
:1070F80009F1D663C2EB03099DED080B00F0CAFE47
:10710800404653EC102B4946FEF7C8FEDDE908233C
:10711800FEF712FD82468B46039BA3BB2BF0004370
:107128001B0D069A1B059A42D8462CD13946304683
:10713800FFF74EF9FEF74CFE0B460246394630463D
:10714800FEF7F8FC079B06460F462BB9BAF1000F6D
:1071580002D1CBF3130383B135A3D3E9002330461F
:107168003946FFF70DF9002831D133A3D3E90023BD
:1071780030463946FFF722F904E031A3D3E900236A
:10718800FFF7FEF818BB1899029800F0F1FB049974
:10719800029800F0EDFB2946029800F0E9FB214631
:1071A800029800F0E5FB6DE5039B83B12B4B0B9335
:1071B80000230A9350465946DDE90A23FEF76EFE7E
:1071C80082468B4619B910B9029A2223136018997E
:1071D800029800F0CDFB0499029800F0C9FB2946FB
:1071E800029800F0C5FB0599029800F0C1FB214602
:1071F800029800F0BDFB139B13B1139A179B136001
:107208000C9B1BB152460BF1004307E052465B460C
:1072180004E000252A460121FFF741BB43EC102B6F
:107228001DB0BDE8F08F00BF0000C0FFFFFFDF41C9
:107238009535A094FFFFDF3F35E5AF350000E03F0F
:107248009535A094FFFFCF3F0000F03F0000E03FDE
:107258000000E07FFFFF9F7CFFFFEF7F00005039B9
:10726800024B0A4601461868FFF7FAB96CE2032098
:10727800F0B548B9106838B9F0BD17F8016B5EB1C0
:10728800B542FAD12BB1204604460F4614F8015BEB
:10729800F3E714600370F0BD4DB915602846F0BDE2
:1072A80017F8016BB54207D0002EF9D11C462346CA
:1072B8000F4613F8015BF3E715B10021217000E0D8
:1072C8002B461360F0BD0123FFF7D2BFF0B5066966
:1072D8004B11B34200F1140527DA11F01F0105EB39
:1072E800860605EB830201D1294616E0141D55F8E0
:1072F8002320C1F1200ECA402B46B44209D2276888
:1073080007FA0EF73A4343F8042B54F8042BCA4003
:10731800F3E71A6052B1043308E0B2420B4605D2D3
:1073280052F8043B41F8043BF7E72B465B1B9B10E4
:10733800036103B94361F0BDA0F13003092B01D803
:1073480020380AE0A0F16103052B01D8473804E092
:10735800A0F14103052B02D82738C0B2704700209E
:1073680070472DE9F04F8BB08A46904606930290FD
:10737800FFF7D8F8036803931846FFF736F9039B1D
:10738800019003444FF0000B13F8013C0793DAF81F
:10739800003002331F4613F8010B302802D10BF1DD
:1073A800010BF7E7FFF7C8FF0446E0B9019A039914
:1073B8003846FFF722F9002834D1019BF85CFE1803
:1073C800FFF7BAFF80B33346187830281F4603F119
:1073D8000103F9D0FFF7B0FFB0FA80F56D09344624
:1073E8004FF0010B01E000252C463A4616460132C3
:1073F8003078FFF7A1FF0028F8D1019A03993046A9
:10740800FFF7FBF850B954B9019BF4182246164609
:1074180001323078FFF790FF0028F8D134B1A41B6F
:10742800A40003E03E4600E0044601253378502BD3
:1074380001D0702B2AD173782B2B08D02D2B03D099
:10744800711C4FF0000905E04FF0010901E04FF011
:107458000009B11C0878FFF76FFF431EDBB2182B39
:1074680014D8A0F1100211F8010FFFF765FF431EB1
:10747800DBB2182B04D80A2303FB0202103AF2E706
:10748800B9F1000F00D05242144400E03146CAF866
:1074980000102DB1BBF1000F14BF002006207CE1C5
:1074A800F31B013B2946072B02DD01315B10FAE78C
:1074B800029800F028FA019B00F1140A4FF0000925
:1074C800C3F101030546CDF810A0CB460893B74297
:1074D8002FD2731E0593079A16F8013C93420BD0DE
:1074E800BBF1200F16D1049BC3F8009004334FF072
:1074F80000090493CB460DE0059B089A13449F426C
:10750800EED81846019A03990993FFF776F8099B74
:1075180068B1E5E716F8010CFFF70EFF00F00F0061
:1075280000FA0BF0059B49EA00090BF1040B1E4613
:10753800CDE7049840F8049BCAEB0000801028614E
:107548004701484600F0A4FAD8F80060381AB0425B
:1075580026DD871B3946284600F0A3FDC8B17B1EEF
:10756800591103F01F024FF001095AF8211009FAC6
:1075780002F20A420ED04B4502DC4FF0020909E044
:10758800B91E284600F08DFD0028F6D04FF00309FB
:1075980000E0814639462846FFF798FE3C440CE057
:1075A80009DA371A29463A46029800F0A7FBE41B85
:1075B800054600F1140A4FF00009D8F808309C423B
:1075C80008DD0298294600F0D3F9149A00231360C5
:1075D800A320E2E0D8F80400844253DA041BA64250
:1075E8002EDCD8F80C30022B1AD0032B1CD0012B20
:1075F8001DD1A6421BD1012E0BDC069AD8F8043007
:10760800136001232B61CAF80030149B62201D60AF
:10761800C3E0711E284600F044FD0028EDD106E0C5
:10762800159B002BE9D002E0159B002BE5D10298B1
:10763800294600F09DF9149A002313605020ACE00D
:10764800671EB9F1000F06D13FB13946284600F050
:1076580028FD814601E04FF001097A11012307F066
:107668001F0703FA07F75AF8223021461F42284617
:1076780018BF49F00209361BFFF728FE0227D8F881
:10768800044000E00127B9F1000F00F08180D8F82C
:107698000C30022B0ED0032B10D0012B76D119F011
:1076A800020F73D0DAF8000049EA000919F0010F57
:1076B80007D16BE0159BC3F101031593159B002BB4
:1076C80064D0D5F810A005F114034FEA8A0903EB3A
:1076D800090100201A68B2F1FF3F02D001321A6096
:1076E80020E043F8040B9942F4D8AB689A4512DBC2
:1076F80069680298013100F006F92A69023205F139
:107708000C01834692000C30FEF710FF29460298C0
:1077180000F02EF95D462B695A1C05EB83032A619C
:1077280001225A61022F05F1140211D1D8F8003054
:10773800013B9E4227D17111012306F01F0603FA6F
:1077480006F652F821301E420CBF022701271AE024
:107758002B699A450ADA01212846FFF7B7FDD8F8C0
:10776800083001349C423FF72CAF0BE016F01F069F
:1077780008D09144C6F1200659F8040C00F088F9A5
:10778800B042E8DB012747F0200701E047F0100787
:10779800149B1D60069B38461C600BB0BDE8F08F3B
:1077A800C2F10802920070B5C2F12006436805686C
:1077B80003FA06F42C43D340046040F8043F88429F
:1077C800F4D370BD30B5036811F8014B01334CB1E7
:1077D8001A78A2F14105192D98BF2032A242F3D0A0
:1077E800002030BD0360012030BD2DE9F04F0B684B
:1077F800D0F800B05E1102EB860613F01F0385B0C7
:1078080018BF0436351F174600228246019346F8F2
:10781800042CA8462C46009291461BF8011F00290B
:107828003CD0084603920291FFF786FD039A00BBFD
:107838000299202916D8009B9945EEDD444505D2CA
:10784800072A03DC41462046FFF7AAFFBC4223D99A
:107858000023A4F1040844F8043CCDF80090444601
:107868001A46DAE7292948D10BF10103CAF8003092
:1078780014E00132082A09F1010906DDBC42CCD91D
:10788800002344F8043C0122043C216800F00F0066
:1078980040EA01102060C0E70822BEE7B9F1000FF6
:1078A8002BD0444505D2072A03DC41462046FFF782
:1078B80077FFBC420CD93B4654F8042B43F8042B01
:1078C800A542F9D2002243F8042B9D42FBD20BE0DB
:1078D800019B4BB1C3F120024FF0FF33D34056F860
:1078E800042C134046F8043C2B6843B9BD4202D12E
:1078F80001232B6003E0043DF6E7042000E00520A7
:1079080005B0BDE8F08F70B5456A04460E463DB92E
:107918001020FCF77BFF6062456085600560C560EC
:10792800656AEB6843B1636ADB6853F8260078B18F
:10793800026843F8262017E021220421204600F09F
:10794800D2FB636AE860DB68002BECD1002070BDD5
:10795800012101FA06F56A1D9200204600F0C3FBDA
:107968000028F3D04660856000230361C36070BDC2
:1079780070B5446A06460D463CB91020FCF746FF30
:107988007062446084600460C4603DB1736A6A6870
:10799800DB6853F82210296043F8225070BD2DE9A6
:1079A800F0410D691F4606460C4601F1140E0023EE
:1079B800DEF8000081B202FB01710F0C000C02FB23
:1079C800007089B2013301EB00419D424FEA104734
:1079D8004EF8041BECDCD7B1A3689D4212DB61684A
:1079E80030460131FFF78FFF2269023204F10C01A2
:1079F800804692000C30FEF799FD21463046FFF78D
:107A0800B7FF444604EB850301355F6125612046D5
:107A1800BDE8F0812DE9F8430C4615461F460922BA
:107A28000833064693FBF2F3002101229A4202DA58
:107A380052000131FAE73046FFF765FF089B4361C2
:107A4800092D4FF00103036111DD04F10908C14656
:107A58002C4419F8013B0146303B0A223046FFF717
:107A68009EFFA145F5D108EB0504083C01E00A3466
:107A780009252D1B63199F4208DD14F8013B0146B7
:107A8800303B0A223046FFF78AFFF3E7BDE8F88368
:107A9800030C1B0413B90004102300E0002310F0AA
:107AA8007F4F04BF0002083310F0704F04BF00017D
:107AB800043310F0404F04BF80000233002803DB7A
:107AC800420003D5581C704718467047202070475D
:107AD800036813F007020BD0D90722D49A074BBFCB
:107AE8005B089B08036003604CBF012002207047BD
:107AF80099B209B91B0C102213F0FF0F04BF1B0A1F
:107B08000832190704BF1B090432990704BF9B08F0
:107B18000232D90702D45B0805D00132036010464F
:107B28007047002070472020704710B50C4601218F
:107B3800FFF7E9FE01224461026110BD2DE9F74F0C
:107B480014460A6923699A42B8BF0B468846BCBFE7
:107B5800A0461C46D8F81070D4F81090D8F8083011
:107B6800D8F8041007EB09069E42C8BF0131FFF799
:107B7800CAFE00F1140505EB860C2B46002263456E
:107B880002D243F8042BFAE704F1140208F11401B5
:107B980002EB890301EB87070093009B0192934254
:107BA80057D9B2F800B0BBF1000F23D08946AE46D2
:107BB8004FF0000859F8044BBEF800A0A3B20BFB25
:107BC80003A34FEA144ADEF8004043444FEA14483E
:107BD8000BFB0A8404EB1344F2469BB243EA0443CA
:107BE8004F454FEA14484AF8043B01D9D646E1E725
:107BF800CEF80480019BB3F802A00432BAF1000F5A
:107C080021D02B682C4689464FF00008B9F800E0CF
:107C1800B4F802B00AFB0EBEF044A3469BB243EA96
:107C280008434BF8043B59F8043BB4F804E01B0C38
:107C38000AFB03E303EB18434F454FEA134801D906
:107C48005C46E3E763600435A7E75CF8043D13B9D5
:107C5800013E002EF9DC066103B0BDE8F08F00009C
:107C68002DE9F843154612F0030206460F4607D0E1
:107C7800013A214C002354F82220FFF790FE0746D2
:107C8800AD1036D0746A3CB91020FCF7BFFD7062A5
:107C9800446084600460C460D6F82480D8F8084042
:107CA8004CB940F271213046FFF73FFF0023C8F876
:107CB8000800044603604FF00008EB070AD5394670
:107CC80022463046FFF73AFF394681463046FFF7ED
:107CD8004FFE4F466D100CD0206808B10446ECE703
:107CE800224621463046FFF729FF2060C0F8008071
:107CF800F4E73846BDE8F883E8850D002DE9F0473C
:107D08000C464FEA621A26694968A3685644074632
:107D18009146751CAB4202DA01315B00FAE738463E
:107D2800FFF7F1FD0023804600F114011A46534580
:107D380003DA41F823200133F9E72AEAEA732069D4
:107D480001EB830319F01F0904F1140101EB800E04
:107D580014D0C9F1200C0022086800FA09F0024387
:107D68009A4643F8042B51F8042B8E4522FA0CF25C
:107D7800F2D8CAF8042042B1B51C06E0043B51F819
:107D8800042B43F8042F8E45F9D8013D3846C8F82E
:107D980010502146FFF7ECFD4046BDE8F087036927
:107DA8000A699B1A10B511D1920014301431831846
:107DB8000A4453F8044D52F8041D8C4202D007D3EC
:107DC800012010BD9842F4D3002010BD184610BD04
:107DD8004FF0FF3010BD2DE9F8430C460746114619
:107DE80020461546FFF7DBFF061E08D13146384608
:107DF800FFF789FD012303614661BDE8F883BCBF35
:107E080023462C4638466168BABF1D46012600261F
:107E1800FFF779FD2B69C660266905F1140914344A
:107E280004EB860709EB830800F114054FF0000CFA
:107E380054F8043B59F8042B1CFA83F11FFA82FE0C
:107E4800120CCEEB0101C2EB134303EB214389B2C1
:107E58004FEA234CC84541EA0343A64645F8043B8C
:107E6800E6D8BE450ED25EF8041B1CFA81F2131444
:107E780003EB114392B242EA03424FEA234C45F81E
:107E8800042BEEE755F8043D0BB9013EFAE706610D
:107E9800BDE8F883124B10EE902A1A40A2F15073F5
:107EA800002B02DD0020194617E05B421B15132B3F
:107EB8004FF000004FF0000104DC4FF4002242FABA
:107EC80003F10AE0143B1E2B4FF00102DABFC3F1A5
:107ED8001F0302FA03F31346184641EC100B7047D0
:107EE8000000F07FF8B5056900F1140606EB85057A
:107EF8002F1F55F8044C2046FFF7CAFDC0F1200398
:107F08000A280B6014DCC0F10B0E24FA0EF1BE42F5
:107F180041F07F5334BF55F8081C0021153004FA8E
:107F280000F021FA0EF143F4401340EA010223E085
:107F3800BE423ABFA5F1080755F8081C00210B38C6
:107F480015D08440C0F1200544F07F5444F4401417
:107F5800B74221FA05FE44EA0E038CBF57F8044CD9
:107F6800002401FA00F0EC4040EA040204E044F086
:107F78007F5343F440130A4643EC102BF8BD2DE918
:107F8800F7430E46012159EC108B1546FFF7BBFC51
:107F9800C9F30A540746C9F313030CB143F4801319
:107FA8000193B8F1000F19D002A840F8088DFFF727
:107FB8008FFD009B48B1019AC0F1200102FA01F13E
:107FC8000B43C2407B61019200E07B61019BBB6176
:107FD800002B14BF02210121396107E001A8FFF736
:107FE80077FD019B7B6101213961203034B1A4F216
:107FF800334404443460C0F1350009E007EB8103E1
:10800800A0F2324030601869FFF742FDC0EB411022
:108018002860384603B0BDE8F0832DE9F743884669
:1080280069468146FFF75EFF01A9404655EC104BB3
:10803800FFF758FFD9F81030D8F810209A1A9DE8A1
:108048000A00C91A57EC106B01EB4213002BCCBF86
:1080580005EB0355A7EB035732463B462046294616
:10806800FEF746F841EC100B03B0BDE8F083013988
:1080780010B549111469013102F1140300EB8101B3
:1080880003EB8404A342024604D253F8042B40F8BD
:10809800042BF7E700238A4202D242F8043BFAE7AE
:1080A80010BD00F1140200694B11984210B50CDBA9
:1080B8000CDD11F01F0109D052F8234024FA01F019
:1080C80000FA01F18C420CD100E0034602EB830375
:1080D800934204D953F8041D0029F9D001E0002087
:1080E80010BD012010BD38B502FB01F42146FCF794
:1080F800BDFB054618B122460021FEF722FA2846A4
:1081080038BD00001D400D0059400D0085400D0090
:1081180089400D0000000000000000000000000081
:1081280035410D004D410D002C0025737B226D2239
:108138003A22253032783A253032783A253032786A
:108148003A253032783A253032783A25303278225A
:108158002C2273223A25642C2263223A25647D005E
:108168006465766963654C6F6361746F72007B2226
:1081780077223A7B2261223A007075626C697368D3
:108188004C6F636174696F6E007363616E446174F0
:10819800613D257300686F6F6B2D726573706F6E2C
:1081A80073652F25732F2573000000000000000061
:1081B8000000000085480D008F480D0099480D000B
:1081C800A3480D00AD480D00B9480D00C5480D0085
:1081D800D1480D00D9480D00E3480D00ED480D00C9
:1081E80000000000000000002B4A0D00214A0D008D
:1081F800174A0D00CD490D000B4A0D00FF490D002F
:10820800F3490D00EB490D00E1490D00D7490D0078
:10821800ED480D000000000000000000A74A0D0016
:108228009D4A0D00934A0D00894A0D007D4A0D00B4
:10823800714A0D00654A0D005D4A0D00534A0D0054
:10824800494A0D00ED480D00000000000000000044
:10825800A94B0D00AB4B0D00000000000000000012
:10826800094C0D00594C0D00674C0D00A5550D002B
:108278001D4C0D003F4C0D002B4C0D00534C0D00B8
:108288000B4C0D000F4C0D0000000000000000001A
:10829800434D0D00934D0D00A14D0D00A5550D004A
:1082A8007F4D0D00454D0D005B4D0D008D4D0D00B2
:1082B800714D0D003F4D0D00000000000000000052
:1082C800614E0D00514E0D00534E0D000000000090
:1082D80000000000354F0D003B4F0D00534F0D00BF
:1082E800494F0D00374F0D005A00252B3033643AA3
:1082F800253032750025592D256D2D2564542548C6
:108308003A254D3A2553257A0061736374696D6582
:10831800006C6E00666E00636F646500646574616E
:10832800696C000D0A00253031307520005D200091
:108338002564002C200028293A2000205B00636F68
:108348006465203D200025690064657461696C736B
:10835800203D2000626175640053657269616C009C
:1083680053657269616C310074797065007061726F
:10837800616D00636D6400696400686E6400737405
:10838800726D0066696C74006C766C006164644898
:10839800616E646C65720072656D6F766548616EBA
:1083A800646C657200656E756D48616E646C6572AB
:1083B80073004A534F4E53747265616D4C6F674832
:1083C800616E646C657200617070006E6F6E65003E
:1083D800747261636500696E666F007761726E0022
:1083E8006572726F720070616E696300616C6C0017
:1083F80000000000000000002F580D0025580D0057
:108408001B580D0011580D0005580D00F9570D00A7
:10841800ED570D00E5570D00DB570D00D1570D0046
:10842800ED480D0000000000000000000000000002
:108438000000000000000000000000000000000034
:108448000000000000000000000000000000000024
:108458000000000000000000000000000000000014
:108468000000000000000000000000000000000004
:1084780000000000000000000000000000000000F4
:10848800000000004300504F534958002E000000E0
:1084980035000000CEFBFFFFCB0300000100000009
:1084A8000000000034000000CEFBFFFFCB030000FB
:1084B80001000000000000006E6600696E697479B2
:1084C80000616E0000000000BC89D897B2D29C3CC5
:1084D80033A7A8D523F649393DA7F444FD0FA532A3
:1084E8009D978CCF08BA5B25436FAC64280668114A
:1084F800000000000000F03F0000000000002440E1
:1085080000000000000059400000000000408F40BB
:10851800000000000088C34000000000006AF84026
:108528000000000080842E4100000000D01263414A
:108538000000000084D797410000000065CDCD41C0
:10854800000000205FA00242000000E876483742A1
:10855800000000A2941A6D42000040E59C30A2423F
:108568000000901EC4BCD64200003426F56B0C43B4
:108578000080E03779C3414300A0D885573476435B
:1085880000C84E676DC1AB43003D9160E458E143BC
:10859800408CB5781DAF154450EFE2D6E41A4B4431
:1085A80092D54D06CFF08044F64AE1C7022DB54476
:1085B800B49DD9794378EA440080E03779C34143D0
:1085C800176E05B5B5B89346F5F93FE9034F384D31
:1085D800321D30F94877825A3CBF737FDD4F1575DD
:1085E80005000000190000007D000000E9400D00B2
:1085F8000D450D00B9490D00354A0D005D4B0D00C4
:1086080065550D0081550D0095550D00F5560D0069
:10861800B9570D0039580D004D580D00A5580D00DB
:1086280029590D00ED590D00B15A0D000000000048
:0886380000000000000000003A
:1086400011830D00000000002C840D004C840D00EF
:108650006C840D000000000000000000000000001D
:10866000000000008C840D000000000000000000ED
:1086700000000000000000000000000000000000FA
:1086800000000000000000000000000000000000EA
:1086900000000000000000000000000000000000DA
:1086A000000000000CE2032094840D002D830D00D7
:1086B0002D830D002D830D002D830D002D830D00C6
:1086C0002D830D002D830D002D830D002D830D00B6
:1086D000FFFFFFFFFFFFFFFFFFFFFFFFFFFF0000A8
:1086E000FFFFFFFF00000102030405060708090A57
:1086F0000B0C0D0E0F101112131415161718191A52
:088700001B1C1D1E1F20280098
:048708007856341259
:04000003D0004018D1
:00000001FF
